{
  "contractName": "Betting",
  "abi": [
    {
      "constant": false,
      "inputs": [],
      "name": "openBettingWindow",
      "outputs": [],
      "payable": false,
      "stateMutability": "nonpayable",
      "type": "function"
    },
    {
      "constant": true,
      "inputs": [],
      "name": "getTimeLeft",
      "outputs": [
        {
          "name": "",
          "type": "uint256"
        }
      ],
      "payable": false,
      "stateMutability": "view",
      "type": "function"
    },
    {
      "constant": false,
      "inputs": [
        {
          "name": "_participantIds",
          "type": "bytes10[]"
        }
      ],
      "name": "setParticipants",
      "outputs": [],
      "payable": false,
      "stateMutability": "nonpayable",
      "type": "function"
    },
    {
      "constant": true,
      "inputs": [],
      "name": "getPoolMoney",
      "outputs": [
        {
          "name": "",
          "type": "uint256"
        }
      ],
      "payable": false,
      "stateMutability": "view",
      "type": "function"
    },
    {
      "constant": false,
      "inputs": [
        {
          "name": "_id",
          "type": "bytes10"
        }
      ],
      "name": "bet",
      "outputs": [
        {
          "name": "",
          "type": "uint256"
        }
      ],
      "payable": true,
      "stateMutability": "payable",
      "type": "function"
    },
    {
      "constant": true,
      "inputs": [
        {
          "name": "id",
          "type": "bytes10"
        }
      ],
      "name": "getParticipantBettors",
      "outputs": [
        {
          "name": "",
          "type": "address[]"
        }
      ],
      "payable": false,
      "stateMutability": "view",
      "type": "function"
    },
    {
      "constant": false,
      "inputs": [
        {
          "name": "id",
          "type": "bytes10"
        }
      ],
      "name": "setWinner",
      "outputs": [],
      "payable": false,
      "stateMutability": "nonpayable",
      "type": "function"
    },
    {
      "constant": true,
      "inputs": [],
      "name": "getParticipants",
      "outputs": [
        {
          "name": "",
          "type": "bytes10[]"
        }
      ],
      "payable": false,
      "stateMutability": "view",
      "type": "function"
    },
    {
      "constant": true,
      "inputs": [
        {
          "name": "id",
          "type": "bytes10"
        }
      ],
      "name": "totalBetFor",
      "outputs": [
        {
          "name": "total",
          "type": "uint256"
        }
      ],
      "payable": false,
      "stateMutability": "view",
      "type": "function"
    },
    {
      "constant": false,
      "inputs": [],
      "name": "claimWinnings",
      "outputs": [],
      "payable": true,
      "stateMutability": "payable",
      "type": "function"
    },
    {
      "constant": false,
      "inputs": [],
      "name": "startTournament",
      "outputs": [],
      "payable": false,
      "stateMutability": "nonpayable",
      "type": "function"
    },
    {
      "constant": true,
      "inputs": [],
      "name": "getTournamentStatus",
      "outputs": [
        {
          "name": "",
          "type": "string"
        }
      ],
      "payable": false,
      "stateMutability": "view",
      "type": "function"
    },
    {
      "constant": true,
      "inputs": [],
      "name": "getClaimablePoolMoney",
      "outputs": [
        {
          "name": "",
          "type": "uint256"
        }
      ],
      "payable": false,
      "stateMutability": "view",
      "type": "function"
    }
  ],
  "bytecode": "0x60806040526103e860005564e8d4a51000600155600060035533600460006101000a81548173ffffffffffffffffffffffffffffffffffffffff021916908373ffffffffffffffffffffffffffffffffffffffff160217905550603c60065560006008556040805190810160405280600781526020017f70656e64696e670000000000000000000000000000000000000000000000000081525060099080519060200190620000b0929190620000c5565b50348015620000be57600080fd5b5062000174565b828054600181600116156101000203166002900490600052602060002090601f016020900481019282601f106200010857805160ff191683800117855562000139565b8280016001018555821562000139579182015b82811115620001385782518255916020019190600101906200011b565b5b5090506200014891906200014c565b5090565b6200017191905b808211156200016d57600081600090555060010162000153565b5090565b90565b6125b280620001846000396000f3006080604052600436106100c5576000357c0100000000000000000000000000000000000000000000000000000000900463ffffffff16806314f54bd6146100ca5780631c44853414610165578063309652ec146101f55780635aa68ac0146102205780636d543f6b1461028c5780637bcf6d92146102b75780637bed4dd4146102fd57806393211ddc1461034a578063b401faf1146103a4578063bf559d11146103ae578063c7e284b8146103c5578063e657f95f146103f0578063f76dc04514610407575b600080fd5b3480156100d657600080fd5b5061010e600480360381019080803575ffffffffffffffffffffffffffffffffffffffffffff1916906020019092919050505061046d565b6040518080602001828103825283818151815260200191508051906020019060200280838360005b83811015610151578082015181840152602081019050610136565b505050509050019250505060405180910390f35b34801561017157600080fd5b5061017a610540565b6040518080602001828103825283818151815260200191508051906020019080838360005b838110156101ba57808201518184015260208101905061019f565b50505050905090810190601f1680156101e75780820380516001836020036101000a031916815260200191505b509250505060405180910390f35b34801561020157600080fd5b5061020a6105e2565b6040518082815260200191505060405180910390f35b34801561022c57600080fd5b5061023561069b565b6040518080602001828103825283818151815260200191508051906020019060200280838360005b8381101561027857808201518184015260208101905061025d565b505050509050019250505060405180910390f35b34801561029857600080fd5b506102a1610745565b6040518082815260200191505060405180910390f35b3480156102c357600080fd5b506102fb600480360381019080803575ffffffffffffffffffffffffffffffffffffffffffff19169060200190929190505050610833565b005b610334600480360381019080803575ffffffffffffffffffffffffffffffffffffffffffff19169060200190929190505050610ad9565b6040518082815260200191505060405180910390f35b34801561035657600080fd5b5061038e600480360381019080803575ffffffffffffffffffffffffffffffffffffffffffff19169060200190929190505050610f4b565b6040518082815260200191505060405180910390f35b6103ac611167565b005b3480156103ba57600080fd5b506103c36116b9565b005b3480156103d157600080fd5b506103da61191a565b6040518082815260200191505060405180910390f35b3480156103fc57600080fd5b50610405611b43565b005b34801561041357600080fd5b5061046b60048036038101908080359060200190820180359060200190808060200260200160405190810160405280939291908181526020018383602002808284378201915050505050509192919290505050611cec565b005b6060600d60008375ffffffffffffffffffffffffffffffffffffffffffff191675ffffffffffffffffffffffffffffffffffffffffffff1916815260200190815260200160002080548060200260200160405190810160405280929190818152602001828054801561053457602002820191906000526020600020905b8160009054906101000a900473ffffffffffffffffffffffffffffffffffffffff1673ffffffffffffffffffffffffffffffffffffffff16815260200190600101908083116104ea575b50505050509050919050565b606060098054600181600116156101000203166002900480601f0160208091040260200160405190810160405280929190818152602001828054600181600116156101000203166002900480156105d85780601f106105ad576101008083540402835291602001916105d8565b820191906000526020600020905b8154815290600101906020018083116105bb57829003601f168201915b5050505050905090565b600073__SafeMathLib___________________________63f88e9fbf6003546000546040518363ffffffff167c0100000000000000000000000000000000000000000000000000000000028152600401808381526020018281526020019250505060206040518083038186803b15801561065b57600080fd5b505af415801561066f573d6000803e3d6000fd5b505050506040513d602081101561068557600080fd5b8101908080519060200190929190505050905090565b6060600280548060200260200160405190810160405280929190818152602001828054801561073b57602002820191906000526020600020906000905b82829054906101000a90047601000000000000000000000000000000000000000000000275ffffffffffffffffffffffffffffffffffffffffffff1916815260200190600a01906020826009010492830192600103820291508084116106d85790505b5050505050905090565b600061082060098054600181600116156101000203166002900480601f0160208091040260200160405190810160405280929190818152602001828054600181600116156101000203166002900480156107e05780601f106107b5576101008083540402835291602001916107e0565b820191906000526020600020905b8154815290600101906020018083116107c357829003601f168201915b50505050506040805190810160405280600581526020017f656e646564000000000000000000000000000000000000000000000000000000815250611e80565b151561082b57600080fd5b600854905090565b600460009054906101000a900473ffffffffffffffffffffffffffffffffffffffff1673ffffffffffffffffffffffffffffffffffffffff163373ffffffffffffffffffffffffffffffffffffffff1614151561088f57600080fd5b61096860098054600181600116156101000203166002900480601f0160208091040260200160405190810160405280929190818152602001828054600181600116156101000203166002900480156109285780601f106108fd57610100808354040283529160200191610928565b820191906000526020600020905b81548152906001019060200180831161090b57829003601f168201915b50505050506040805190810160405280600781526020017f6f6e676f696e6700000000000000000000000000000000000000000000000000815250611e80565b151561097357600080fd5b4273__SafeMathLib___________________________63771602f76005546006546040518363ffffffff167c0100000000000000000000000000000000000000000000000000000000028152600401808381526020018281526020019250505060206040518083038186803b1580156109eb57600080fd5b505af41580156109ff573d6000803e3d6000fd5b505050506040513d6020811015610a1557600080fd5b8101908080519060200190929190505050101515610a3257600080fd5b6000600280549050111515610a4657600080fd5b80600760006101000a81548169ffffffffffffffffffff0219169083760100000000000000000000000000000000000000000000900402179055506040805190810160405280600581526020017f656e64656400000000000000000000000000000000000000000000000000000081525060099080519060200190610acc9291906123d8565b5060035460088190555050565b600034600081111515610aeb57600080fd5b600a60ff16600081111515610aff57600080fd5b83610b0981612031565b1515610b1457600080fd5b610bed60098054600181600116156101000203166002900480601f016020809104026020016040519081016040528092919081815260200182805460018160011615610100020316600290048015610bad5780601f10610b8257610100808354040283529160200191610bad565b820191906000526020600020905b815481529060010190602001808311610b9057829003601f168201915b50505050506040805190810160405280600781526020017f62657474696e6700000000000000000000000000000000000000000000000000815250611e80565b1515610bf857600080fd5b4273__SafeMathLib___________________________63771602f76005546006546040518363ffffffff167c0100000000000000000000000000000000000000000000000000000000028152600401808381526020018281526020019250505060206040518083038186803b158015610c7057600080fd5b505af4158015610c84573d6000803e3d6000fd5b505050506040513d6020811015610c9a57600080fd5b8101908080519060200190929190505050111515610cb757600080fd5b6000600280549050111515610ccb57600080fd5b73__SafeMathLib___________________________63771602f7600a60003373ffffffffffffffffffffffffffffffffffffffff1673ffffffffffffffffffffffffffffffffffffffff16815260200190815260200160002060008875ffffffffffffffffffffffffffffffffffffffffffff191675ffffffffffffffffffffffffffffffffffffffffffff1916815260200190815260200160002054346040518363ffffffff167c0100000000000000000000000000000000000000000000000000000000028152600401808381526020018281526020019250505060206040518083038186803b158015610dc057600080fd5b505af4158015610dd4573d6000803e3d6000fd5b505050506040513d6020811015610dea57600080fd5b8101908080519060200190929190505050600a60003373ffffffffffffffffffffffffffffffffffffffff1673ffffffffffffffffffffffffffffffffffffffff16815260200190815260200160002060008775ffffffffffffffffffffffffffffffffffffffffffff191675ffffffffffffffffffffffffffffffffffffffffffff191681526020019081526020016000208190555073__SafeMathLib___________________________63771602f7600354346040518363ffffffff167c0100000000000000000000000000000000000000000000000000000000028152600401808381526020018281526020019250505060206040518083038186803b158015610ef657600080fd5b505af4158015610f0a573d6000803e3d6000fd5b505050506040513d6020811015610f2057600080fd5b8101908080519060200190929190505050600381905550610f40856120e8565b349350505050919050565b600080600090505b600d60008475ffffffffffffffffffffffffffffffffffffffffffff191675ffffffffffffffffffffffffffffffffffffffffffff191681526020019081526020016000208054905081101561115e5773__SafeMathLib___________________________63771602f783600a6000600d60008975ffffffffffffffffffffffffffffffffffffffffffff191675ffffffffffffffffffffffffffffffffffffffffffff191681526020019081526020016000208681548110151561101457fe5b9060005260206000200160009054906101000a900473ffffffffffffffffffffffffffffffffffffffff1673ffffffffffffffffffffffffffffffffffffffff1673ffffffffffffffffffffffffffffffffffffffff16815260200190815260200160002060008775ffffffffffffffffffffffffffffffffffffffffffff191675ffffffffffffffffffffffffffffffffffffffffffff19168152602001908152602001600020546040518363ffffffff167c0100000000000000000000000000000000000000000000000000000000028152600401808381526020018281526020019250505060206040518083038186803b15801561111457600080fd5b505af4158015611128573d6000803e3d6000fd5b505050506040513d602081101561113e57600080fd5b810190808051906020019092919050505091508080600101915050610f53565b81915050919050565b600061124260098054600181600116156101000203166002900480601f0160208091040260200160405190810160405280929190818152602001828054600181600116156101000203166002900480156112025780601f106111d757610100808354040283529160200191611202565b820191906000526020600020905b8154815290600101906020018083116111e557829003601f168201915b50505050506040805190810160405280600581526020017f656e646564000000000000000000000000000000000000000000000000000000815250611e80565b151561124d57600080fd5b4273__SafeMathLib___________________________63771602f76005546006546040518363ffffffff167c0100000000000000000000000000000000000000000000000000000000028152600401808381526020018281526020019250505060206040518083038186803b1580156112c557600080fd5b505af41580156112d9573d6000803e3d6000fd5b505050506040513d60208110156112ef57600080fd5b810190808051906020019092919050505010151561130c57600080fd5b61133b600760009054906101000a900476010000000000000000000000000000000000000000000002336122ae565b151561134657600080fd5b60001515600b60003373ffffffffffffffffffffffffffffffffffffffff1673ffffffffffffffffffffffffffffffffffffffff1681526020019081526020016000206000600760009054906101000a90047601000000000000000000000000000000000000000000000275ffffffffffffffffffffffffffffffffffffffffffff191675ffffffffffffffffffffffffffffffffffffffffffff1916815260200190815260200160002060009054906101000a900460ff16151514151561140d57600080fd5b60085460008111151561141f57600080fd5b61144d600760009054906101000a900476010000000000000000000000000000000000000000000002610f4b565b600a60003373ffffffffffffffffffffffffffffffffffffffff1673ffffffffffffffffffffffffffffffffffffffff1681526020019081526020016000206000600760009054906101000a90047601000000000000000000000000000000000000000000000275ffffffffffffffffffffffffffffffffffffffffffff191675ffffffffffffffffffffffffffffffffffffffffffff19168152602001908152602001600020546003540281151561150257fe5b0491503373ffffffffffffffffffffffffffffffffffffffff166108fc839081150290604051600060405180830381858888f1935050505015801561154b573d6000803e3d6000fd5b5073__SafeMathLib___________________________633ef5e445600354846040518363ffffffff167c0100000000000000000000000000000000000000000000000000000000028152600401808381526020018281526020019250505060206040518083038186803b1580156115c157600080fd5b505af41580156115d5573d6000803e3d6000fd5b505050506040513d60208110156115eb57600080fd5b8101908080519060200190929190505050600881905550600b60003373ffffffffffffffffffffffffffffffffffffffff1673ffffffffffffffffffffffffffffffffffffffff1681526020019081526020016000206000600760009054906101000a90047601000000000000000000000000000000000000000000000275ffffffffffffffffffffffffffffffffffffffffffff191675ffffffffffffffffffffffffffffffffffffffffffff1916815260200190815260200160002060009054906101000a9050505050565b600460009054906101000a900473ffffffffffffffffffffffffffffffffffffffff1673ffffffffffffffffffffffffffffffffffffffff163373ffffffffffffffffffffffffffffffffffffffff1614151561171557600080fd5b600060028054905011151561172957600080fd5b4273__SafeMathLib___________________________63771602f76005546006546040518363ffffffff167c0100000000000000000000000000000000000000000000000000000000028152600401808381526020018281526020019250505060206040518083038186803b1580156117a157600080fd5b505af41580156117b5573d6000803e3d6000fd5b505050506040513d60208110156117cb57600080fd5b81019080805190602001909291905050501015156117e857600080fd5b6118c160098054600181600116156101000203166002900480601f0160208091040260200160405190810160405280929190818152602001828054600181600116156101000203166002900480156118815780601f1061185657610100808354040283529160200191611881565b820191906000526020600020905b81548152906001019060200180831161186457829003601f168201915b50505050506040805190810160405280600781526020017f62657474696e6700000000000000000000000000000000000000000000000000815250611e80565b15156118cc57600080fd5b6040805190810160405280600781526020017f6f6e676f696e6700000000000000000000000000000000000000000000000000815250600990805190602001906119179291906123d8565b50565b60004273__SafeMathLib___________________________63771602f76005546006546040518363ffffffff167c0100000000000000000000000000000000000000000000000000000000028152600401808381526020018281526020019250505060206040518083038186803b15801561199457600080fd5b505af41580156119a8573d6000803e3d6000fd5b505050506040513d60208110156119be57600080fd5b810190808051906020019092919050505010156119de5760009050611b40565b73__SafeMathLib___________________________633ef5e44573__SafeMathLib___________________________63771602f76005546006546040518363ffffffff167c0100000000000000000000000000000000000000000000000000000000028152600401808381526020018281526020019250505060206040518083038186803b158015611a6f57600080fd5b505af4158015611a83573d6000803e3d6000fd5b505050506040513d6020811015611a9957600080fd5b8101908080519060200190929190505050426040518363ffffffff167c0100000000000000000000000000000000000000000000000000000000028152600401808381526020018281526020019250505060206040518083038186803b158015611b0257600080fd5b505af4158015611b16573d6000803e3d6000fd5b505050506040513d6020811015611b2c57600080fd5b810190808051906020019092919050505090505b90565b611c1c60098054600181600116156101000203166002900480601f016020809104026020016040519081016040528092919081815260200182805460018160011615610100020316600290048015611bdc5780601f10611bb157610100808354040283529160200191611bdc565b820191906000526020600020905b815481529060010190602001808311611bbf57829003601f168201915b50505050506040805190810160405280600781526020017f70656e64696e6700000000000000000000000000000000000000000000000000815250611e80565b1515611c2757600080fd5b6000600280549050111515611c3b57600080fd5b600460009054906101000a900473ffffffffffffffffffffffffffffffffffffffff1673ffffffffffffffffffffffffffffffffffffffff163373ffffffffffffffffffffffffffffffffffffffff16141515611c9757600080fd5b426005819055506040805190810160405280600781526020017f62657474696e670000000000000000000000000000000000000000000000000081525060099080519060200190611ce99291906123d8565b50565b8060008151111515611cfd57600080fd5b600460009054906101000a900473ffffffffffffffffffffffffffffffffffffffff1673ffffffffffffffffffffffffffffffffffffffff163373ffffffffffffffffffffffffffffffffffffffff16141515611d5957600080fd5b611e3260098054600181600116156101000203166002900480601f016020809104026020016040519081016040528092919081815260200182805460018160011615610100020316600290048015611df25780601f10611dc757610100808354040283529160200191611df2565b820191906000526020600020905b815481529060010190602001808311611dd557829003601f168201915b50505050506040805190810160405280600781526020017f70656e64696e6700000000000000000000000000000000000000000000000000815250611e80565b1515611e3d57600080fd5b600060048351811515611e4c57fe5b061480611e5a575060028251145b1515611e6557600080fd5b8160029080519060200190611e7b929190612458565b505050565b6000816040516020018082805190602001908083835b602083101515611ebb5780518252602082019150602081019050602083039250611e96565b6001836020036101000a0380198251168184511680821785525050505050509050019150506040516020818303038152906040526040518082805190602001908083835b602083101515611f245780518252602082019150602081019050602083039250611eff565b6001836020036101000a038019825116818451168082178552505050505050905001915050604051809103902060001916836040516020018082805190602001908083835b602083101515611f8e5780518252602082019150602081019050602083039250611f69565b6001836020036101000a0380198251168184511680821785525050505050509050019150506040516020818303038152906040526040518082805190602001908083835b602083101515611ff75780518252602082019150602081019050602083039250611fd2565b6001836020036101000a03801982511681845116808217855250505050505090500191505060405180910390206000191614905092915050565b600080600090505b6002805490508110156120dd578275ffffffffffffffffffffffffffffffffffffffffffff191660028281548110151561206f57fe5b9060005260206000209060039182820401919006600a029054906101000a90047601000000000000000000000000000000000000000000000275ffffffffffffffffffffffffffffffffffffffffffff191614156120d057600191506120e2565b8080600101915050612039565b600091505b50919050565b60008090505b600d60008375ffffffffffffffffffffffffffffffffffffffffffff191675ffffffffffffffffffffffffffffffffffffffffffff1916815260200190815260200160002080549050811015612200573373ffffffffffffffffffffffffffffffffffffffff16600d60008475ffffffffffffffffffffffffffffffffffffffffffff191675ffffffffffffffffffffffffffffffffffffffffffff19168152602001908152602001600020828154811015156121a757fe5b9060005260206000200160009054906101000a900473ffffffffffffffffffffffffffffffffffffffff1673ffffffffffffffffffffffffffffffffffffffff1614156121f3576122aa565b80806001019150506120ee565b600d60008375ffffffffffffffffffffffffffffffffffffffffffff191675ffffffffffffffffffffffffffffffffffffffffffff191681526020019081526020016000203390806001815401808255809150509060018203906000526020600020016000909192909190916101000a81548173ffffffffffffffffffffffffffffffffffffffff021916908373ffffffffffffffffffffffffffffffffffffffff160217905550505b5050565b600080600090505b600d60008575ffffffffffffffffffffffffffffffffffffffffffff191675ffffffffffffffffffffffffffffffffffffffffffff19168152602001908152602001600020805490508110156123cc578273ffffffffffffffffffffffffffffffffffffffff16600d60008675ffffffffffffffffffffffffffffffffffffffffffff191675ffffffffffffffffffffffffffffffffffffffffffff191681526020019081526020016000208281548110151561236f57fe5b9060005260206000200160009054906101000a900473ffffffffffffffffffffffffffffffffffffffff1673ffffffffffffffffffffffffffffffffffffffff1614156123bf57600191506123d1565b80806001019150506122b6565b600091505b5092915050565b828054600181600116156101000203166002900490600052602060002090601f016020900481019282601f1061241957805160ff1916838001178555612447565b82800160010185558215612447579182015b8281111561244657825182559160200191906001019061242b565b5b5090506124549190612528565b5090565b828054828255906000526020600020906002016003900481019282156125175791602002820160005b838211156124df57835183826101000a81548169ffffffffffffffffffff0219169083760100000000000000000000000000000000000000000000900402179055509260200192600a01602081600901049283019260010302612481565b80156125155782816101000a81549069ffffffffffffffffffff0219169055600a016020816009010492830192600103026124df565b505b509050612524919061254d565b5090565b61254a91905b8082111561254657600081600090555060010161252e565b5090565b90565b61258391905b8082111561257f57600081816101000a81549069ffffffffffffffffffff021916905550600101612553565b5090565b905600a165627a7a7230582036caf4d5062ccb2005e54dd95e09f33f201e02cabb4b7aaf77328a7979ff79950029",
  "source": "pragma solidity ^0.4.24;\nimport \"./SafeMathLib.sol\";\n\ncontract Betting {\n    uint private Kwei = 1000;\n    uint private Szabo = 1000000000000;\n    bytes10[] private participantIds;\n    uint private poolMoney = 0;\n    address private contractOwner = msg.sender;\n    uint private bettingWindow;\n    uint private timeLock = 1 minutes;\n    bytes10 private winnerId;\n    uint private claimablePoolmoney = 0;\n    string internal tournamentStatus = \"pending\";\n\n    mapping(address => mapping(bytes10 => uint)) internal bettorBetted;\n    mapping(address => mapping(bytes10 => bool)) internal claimed;\n    mapping(bytes10 => uint) internal totalBets;\n    mapping(bytes10 => address[]) internal participantBettors;\n\n    modifier arrayNotEmpty(bytes10[] data) {\n        require(data.length > 0);\n        _;\n    }\n\n    modifier onlyUnclaimed() {\n        require(claimed[msg.sender][winnerId] == false);\n        _;\n    }\n\n    modifier onlyOwner() {\n        require(msg.sender == contractOwner);\n        _;\n    }\n\n    modifier onlyPositiveNumber(uint number) {\n        require(number > 0);\n        _;\n    }\n\n    modifier onlyValidParticipants(bytes10 id) {\n        require(isValidParticipant(id));\n        _;\n    }\n\n    modifier mustBeWinningParticipantBettor() {\n        require(isBettorBettedFor(winnerId, msg.sender));\n        _;\n    }\n\n    modifier onlyInTimeline {\n        require(SafeMathLib.add(bettingWindow, timeLock) > now);\n        _;\n    }\n\n    modifier onlyAfterTimelock {\n        require(SafeMathLib.add(bettingWindow, timeLock) < now);\n        _;\n    }\n\n    modifier onlyPendingTournament() {\n        require(compareString(tournamentStatus, \"pending\"));\n        _;\n    }\n\n    modifier onlyOngoingTournament() {\n        require(compareString(tournamentStatus, \"ongoing\"));\n        _;\n    }\n\n    modifier onlyEndTournament {\n        require(compareString(tournamentStatus, \"ended\"));\n        _;\n    }\n\n    modifier onlyBettingStatus {\n        require(compareString(tournamentStatus, \"betting\"));\n        _;\n    }\n\n    modifier mustHaveParticipants () {\n        require(participantIds.length > 0);\n        _;\n    }\n\n    function compareString(string s1, string s2) internal pure returns (bool) {\n        return (keccak256(abi.encodePacked(s1)) == keccak256(abi.encodePacked(s2)));\n    }\n\n    function getElapsedTime() internal view returns(uint256) {\n        return SafeMathLib.subtract(now, bettingWindow);\n    }\n\n    function isValidParticipant(bytes10 id) internal view returns (bool) {\n        for(uint i = 0; i < participantIds.length; i++) {\n            if (participantIds[i] == id) {\n                return true;\n            }\n        }\n        return false;\n    }\n\n    function isBettorBettedFor(bytes10 id, address addr) internal view returns (bool) {\n        for(uint i = 0; i < participantBettors[id].length; i++) {\n            if(participantBettors[id][i] == addr) {\n                return true;\n            }\n        }\n        return false;\n    }\n\n    function pushToParticipantBettors(bytes10 id) internal {\n        for(uint i = 0; i < participantBettors[id].length; i++) {\n            if(participantBettors[id][i] == msg.sender) {\n                return;\n            }\n        }\n        participantBettors[id].push(msg.sender);\n    }\n\n    function openBettingWindow()\n        public\n        onlyPendingTournament\n        mustHaveParticipants\n        onlyOwner\n    {\n        bettingWindow = now;\n        tournamentStatus = \"betting\";\n    }\n\n    function getTimeLeft() public view returns(uint256) {\n        if(SafeMathLib.add(bettingWindow, timeLock) < now) {\n            return 0;\n        } else {\n            return SafeMathLib.subtract(SafeMathLib.add(bettingWindow, timeLock), now);\n        }\n    }\n\n    function setParticipants(bytes10[] _participantIds)\n      public\n      arrayNotEmpty(_participantIds)\n      onlyOwner\n      onlyPendingTournament\n      {\n        require(_participantIds.length % 4 == 0 || _participantIds.length == 2);\n        participantIds = _participantIds;\n    }\n\n    function getPoolMoney () public view returns (uint) {\n        return SafeMathLib.divide(poolMoney, Kwei);\n    }\n\n    function bet(bytes10 _id)\n        public\n        payable\n        onlyPositiveNumber(msg.value)\n        onlyPositiveNumber(_id.length)\n        onlyValidParticipants(_id)\n        onlyBettingStatus\n        onlyInTimeline\n        mustHaveParticipants\n    returns (uint) {\n        bettorBetted[msg.sender][_id] = SafeMathLib.add(bettorBetted[msg.sender][_id], msg.value);\n        poolMoney = SafeMathLib.add(poolMoney, msg.value);\n        pushToParticipantBettors(_id);\n        return msg.value;\n    }\n\n    function getParticipantBettors(bytes10 id) public view returns (address[]) {\n        return participantBettors[id];\n    }\n\n\n    function setWinner(bytes10 id) public\n      onlyOwner\n      onlyOngoingTournament\n      onlyAfterTimelock\n      mustHaveParticipants\n      {\n        winnerId = id;\n        tournamentStatus = \"ended\";\n        claimablePoolmoney = poolMoney;\n    }\n\n    function getParticipants () public view returns(bytes10[]){\n        return participantIds;\n    }\n\n    function totalBetFor(bytes10 id) public view returns (uint total) {\n        for (uint i = 0; i < participantBettors[id].length; i++) {\n            total = SafeMathLib.add(total, bettorBetted[participantBettors[id][i]][id]);\n        }\n        return total;\n    }\n\n    function claimWinnings()\n      public\n      payable\n      onlyEndTournament\n      onlyAfterTimelock\n      mustBeWinningParticipantBettor\n      onlyUnclaimed\n      onlyPositiveNumber(claimablePoolmoney)\n      {\n        uint amount = (poolMoney*bettorBetted[msg.sender][winnerId])/totalBetFor(winnerId);\n        address(msg.sender).transfer(amount);\n        claimablePoolmoney = SafeMathLib.subtract(poolMoney, amount);\n        claimed[msg.sender][winnerId];\n    }\n\n    function startTournament() public\n        onlyOwner\n        mustHaveParticipants\n        onlyAfterTimelock\n        onlyBettingStatus\n    {\n        tournamentStatus = \"ongoing\";\n    }\n\n    function getTournamentStatus() public view returns(string) {\n        return tournamentStatus;\n    }\n\n    function getClaimablePoolMoney()\n        public\n        onlyEndTournament\n        view returns(uint) {\n        return claimablePoolmoney;\n    }\n}\n",
  "sourcePath": "/Users/skjghisole/Desktop/TourneyMintDapp/contracts/Betting.sol",
  "compiler": {
    "name": "solc",
    "version": "0.4.24+commit.e67f0147.Emscripten.clang"
  },
  "schemaVersion": "2.0.1",
  "updatedAt": "2018-09-26T14:48:05.133Z"
}