{
  "contractName": "SafeMathLib",
  "abi": [
    {
      "constant": true,
      "inputs": [
        {
          "name": "num1",
          "type": "uint256"
        },
        {
          "name": "num2",
          "type": "uint256"
        }
      ],
      "name": "add",
      "outputs": [
        {
          "name": "",
          "type": "uint256"
        }
      ],
      "payable": false,
      "stateMutability": "pure",
      "type": "function"
    },
    {
      "constant": true,
      "inputs": [
        {
          "name": "num1",
          "type": "uint256"
        },
        {
          "name": "num2",
          "type": "uint256"
        }
      ],
      "name": "subtract",
      "outputs": [
        {
          "name": "",
          "type": "uint256"
        }
      ],
      "payable": false,
      "stateMutability": "pure",
      "type": "function"
    },
    {
      "constant": true,
      "inputs": [
        {
          "name": "num1",
          "type": "uint256"
        },
        {
          "name": "num2",
          "type": "uint256"
        }
      ],
      "name": "multiply",
      "outputs": [
        {
          "name": "",
          "type": "uint256"
        }
      ],
      "payable": false,
      "stateMutability": "pure",
      "type": "function"
    },
    {
      "constant": true,
      "inputs": [
        {
          "name": "num1",
          "type": "uint256"
        },
        {
          "name": "num2",
          "type": "uint256"
        }
      ],
      "name": "divide",
      "outputs": [
        {
          "name": "",
          "type": "uint256"
        }
      ],
      "payable": false,
      "stateMutability": "pure",
      "type": "function"
    }
  ],
  "bytecode": "0x6101df610030600b82828239805160001a6073146000811461002057610022565bfe5b5030600052607381538281f3007300000000000000000000000000000000000000003014608060405260043610610079576000357c0100000000000000000000000000000000000000000000000000000000900463ffffffff168063165c4a161461007e5780633ef5e445146100bc578063771602f7146100fa578063f88e9fbf14610138575b600080fd5b6100a66004803603810190808035906020019092919080359060200190929190505050610176565b6040518082815260200191505060405180910390f35b6100e46004803603810190808035906020019092919080359060200190929190505050610183565b6040518082815260200191505060405180910390f35b6101226004803603810190808035906020019092919080359060200190929190505050610190565b6040518082815260200191505060405180910390f35b610160600480360381019080803590602001909291908035906020019092919050505061019d565b6040518082815260200191505060405180910390f35b6000818302905092915050565b6000818303905092915050565b6000818301905092915050565b600081838115156101aa57fe5b049050929150505600a165627a7a72305820a442eb93fe3bda85baefe2880829bf9973f9c52dc0de6ef7a951e75e55d399480029",
  "source": "pragma solidity ^0.4.24;\n\nlibrary SafeMathLib {\n    function add(uint num1, uint num2) public pure returns(uint256) {\n        return num1 + num2;\n    }\n    \n    function subtract(uint num1, uint num2) public pure returns(uint256) {\n        return num1 - num2;\n    }\n    \n    function multiply(uint num1, uint num2) public pure returns(uint256) {\n        return num1 * num2;\n    }\n\n    function divide(uint num1, uint num2) public pure returns(uint256) {\n        return num1 / num2;\n    }\n}",
  "sourcePath": "/Users/skjghisole/Desktop/TourneyMintDapp/contracts/SafeMathLib.sol",
  "compiler": {
    "name": "solc",
    "version": "0.4.24+commit.e67f0147.Emscripten.clang"
  },
  "schemaVersion": "2.0.1",
  "updatedAt": "2018-09-26T14:48:05.119Z"
}